:020000040800F2
:100000000010002091160008591500085B15000823
:1000100000000000000000000000000000000000E0
:100020000000000000000000000000005D15000856
:1000300000000000000000005F15000861150008C6
:10004000E116000800000000E1160008E1160008B3
:10005000E1160008E1160008E1160008E1160008A4
:1000600000000000E1160008E1160008E116000893
:10007000E1160008E1160008E11600080000000083
:10008000E11600080000000000000000E116000872
:1000900000000000E1160008E1160008E116000863
:1000A00000000000E1160008000000006D150008C7
:1000B0000000000000000000000000000000000040
:1000C00010B5064C2378002B07D1054B002B02D02E
:1000D000044800E000BF0123237010BD040000208D
:1000E000000000002C170008044B10B5002B03D0B3
:1000F0000349044800E000BF10BDC04600000000F6
:10010000080000202C170008002243088B4274D3FB
:1001100003098B425FD3030A8B4244D3030B8B4208
:1001200028D3030C8B420DD3FF22090212BA030C11
:100130008B4202D31212090265D0030B8B4219D3F2
:1001400000E0090AC30B8B4201D3CB03C01A524112
:10015000830B8B4201D38B03C01A5241430B8B425A
:1001600001D34B03C01A5241030B8B4201D30B0343
:10017000C01A5241C30A8B4201D3CB02C01A52416A
:10018000830A8B4201D38B02C01A5241430A8B422D
:1001900001D34B02C01A5241030A8B4201D30B0216
:1001A000C01A5241CDD2C3098B4201D3CB01C01A30
:1001B000524183098B4201D38B01C01A524143093A
:1001C0008B4201D34B01C01A524103098B4201D328
:1001D0000B01C01A5241C3088B4201D3CB00C01A95
:1001E000524183088B4201D38B00C01A524143080D
:1001F0008B4201D34B00C01A5241411A00D2014632
:10020000524110467047FFE701B5002000F006F8A4
:1002100002BDC0460029F7D076E770477047C04658
:1002200010B5040000F0A8FCFA218900FFF76CFF6C
:1002300000F072F8012000222100404200F032F864
:10024000002010BD10B5064A136810210B4313603F
:100250000020FFF7E5FF01F025F9002010BDC046A2
:1002600000200240024A1368013313607047C04601
:100270002C000020014B18687047C0462C0000205D
:1002800030B583B00190FFF7F5FF0500019C631CBA
:1002900000D00134FFF7EEFF401BA042FAD303B0B9
:1002A00030BD000070B5002811DB8408134DC03448
:1002B000A400625903231840C000FC331E0086408E
:1002C000B24389010B4083401343635170BDC0B2F8
:1002D0000F220240083A920806329200084BD318C7
:1002E0005D6803242040C000FF2214008440A54321
:1002F00089010A4082402A435A60E7E700E100E0B2
:1003000000ED00E01F2318401E3B8340014A1360AC
:100310007047C04600E100E001380A4B98420FD810
:10032000094A50600948036A1B021B0AC0210906DA
:100330000B43036200239360073313600020704770
:100340000120FCE7FFFFFF0010E000E000ED00E00F
:10035000042805D0054A136804218B4313607047B5
:10036000024A136804210B431360F8E710E000E031
:10037000704710B5FFF7FCFF10BD10B52123C35C1B
:10038000022B03D004238363012010BD026813688D
:100390000E218B43136001680A6801239A430A60A7
:1003A000C26B1900046CA1405160212283541F3399
:1003B0000022C254436B002B02D098470020E4E790
:1003C0000020E2E7F0B5C64600B582B0002338E071
:1003D000032600E00026AE4035003D430234A40071
:1003E000554EA551554C25684246D4432E00264013
:1003F0004A68D20302D5424615432E004F4D2E6067
:100400006D682E0026404A68920302D54246154385
:100410002E004A4D6E60AD682E0026404A68D2021A
:1004200002D5424615432E00444DAE60ED682C4087
:100430004A68920202D542462A4314003F4AD460D9
:1004400001330A681400DC4071D001259D402A4028
:100450009046F5D04C68022C01D0122C0ED1DC084D
:100460000834A400275807261E40B6000F22B240C9
:1004700097430A69B24016003E43265002685F0067
:1004800003242600BE40F643324094464A68144096
:10049000BC406246144304604C68621E012A03D9C2
:1004A000112C01D0122C10D184683440A446CC68A1
:1004B000BC406246144384604468AC434A681209F5
:1004C000012515409D4025434560C46826408C6841
:1004D000BC403443C4604A68D200B1D5184DAE69FF
:1004E00001242643AE61AD692C400194019C9C0817
:1004F000A51CAD00104EAF5903251D40AD000F26C1
:10050000AE40B7439026F605B04200D162E70D4EEB
:10051000B04208D00C4EB04207D00C4EB04200D1D1
:1005200056E7052657E7012655E7022653E702B0AE
:1005300004BC9046F0BDC0460000014000040140EC
:10054000001002400004004800080048000C004869
:1005500003690B4201D1002070470120FCE7000035
:1005600070B582B004000368DB0726D5AE4B5A682D
:100570000C231340042B18D0AB4B5A680C231340A8
:10058000082B0ED06368012B3CD0002B51D1A64B19
:100590001A68A6490A401A601A68A5490A401A60F2
:1005A00036E0A14B5B68DB03ECD59F4B1B689B03DC
:1005B00003D56368002B00D1ECE123689B0773D55A
:1005C000994B5B680C221A425DD0974B5A680C23FA
:1005D0001340082B53D0E368002B00D186E0924AE9
:1005E000136801210B431360FFF744FE05008E4B97
:1005F0001B689B0771D4FFF73DFE401B0228F6D90C
:100600000320CAE1884A116880235B020B43136010
:100610006368002B25D0FFF72DFE0500824B1B6879
:100620009B03CAD4FFF726FE401B6428F6D903209B
:10063000B3E1052B09D07C4B1A687C490A401A604B
:100640001A687B490A401A60E2E7774B19688022F2
:10065000D2020A431A601968802252020A431A60C1
:10066000D6E7FFF707FE05006F4B1B689B03A4D579
:10067000FFF700FE401B6428F6D903208DE16A4B8A
:100680005B68DB03A7D4684B1B689B0704D5E36852
:10069000012B01D0012080E163490B68F8229343CC
:1006A0002269D20013430B6023681B0744D5E3691A
:1006B000002B2ED05C4A536A01210B435362FFF793
:1006C000D9FD0500584B5B6A9B0735D4FFF7D2FD77
:1006D000401B0228F6D903205FE153490B68F8223A
:1006E00093432269D20013430B60DDE74E4A13683F
:1006F00001218B431360FFF7BDFD05004A4B1B68CA
:100700009B07D1D5FFF7B6FD401B0228F6D9032081
:1007100043E1454A536A01218B435362FFF7AAFD27
:100720000500414B5B6A9B0706D5FFF7A3FD401B05
:100730000228F6D9032030E123685B0700D47FE06C
:10074000394BDB69DB001DD4374AD1698020400575
:100750000143D161D36903400193019B0125354BCE
:100760001B68DB0510D5A368012B21D0002B36D1E7
:100770002D4B1A6A01218A431A621A6A03318A438D
:100780001A621AE00025EAE72A4A116880235B0012
:100790000B431360FFF76EFD0600264B1B68DB055D
:1007A000E1D4FFF767FD801B6428F6D90320F4E04D
:1007B0001D4A136A01210B431362A368002B24D046
:1007C000FFF758FD0600184B1B6A9B0736D4FFF74E
:1007D00051FD801B184B9842F5D90320DDE0052B15
:1007E00009D0114B1A6A01218A431A621A6A03312D
:1007F0008A431A62E1E70C4B1A6A04210A431A621F
:100800001A6A03390A431A62D7E7FFF733FD060075
:10081000054B1B6A9B0711D5FFF72CFD801B064B70
:100820009842F5D90320B8E000100240FFFFFEFF18
:10083000FFFFFBFF0070004088130000012D33D044
:100840002368DB0610D56369012B33D0053351D102
:10085000544A536B04218B435363536BF4318B43E2
:10086000A169C9000B435363236A002B00D193E0B5
:100870004C4A51680C220A40082A00D18FE0022B12
:100880004FD0484A136848490B401360FFF7F2FC09
:100890000400444B1B689B017AD5FFF7EBFC001B5F
:1008A0000228F6D9032078E03E4AD3693F490B403D
:1008B000D361C5E73B4B5A6B04210A435A635A6B19
:1008C00003390A435A63FFF7D5FC0500354B5B6BD0
:1008D0009B0706D4FFF7CEFC401B0228F6D9032065
:1008E0005BE030494B6BF8229343A269D20013437B
:1008F0004B63B9E72B4B5A6B04210A435A635A6B7B
:1009000003398A435A63FFF7B5FC0500254B5B6B3F
:100910009B07A9D5FFF7AEFC401B0228F6D90320A0
:100920003BE0204A136820490B401360FFF7A2FC0C
:1009300005001C4B1B689B0106D5FFF79BFC401B69
:100940000228F6D9032028E0164BDA6A0F218A43E1
:10095000E16A0A43DA625A6815490A40A16A606A84
:1009600001430A435A601968802252040A431A60FC
:10097000FFF780FC04000B4B1B689B0106D4FFF7BC
:1009800079FC001B0228F6D9032006E0002004E0D1
:10099000002002E0012000E0002002B070BD012034
:1009A000FBE7C04600100240FFFFFFFEFFFFFFEF26
:1009B000FFFFC2FF30B589B004AA174B180032C838
:1009C00032C2110002680A606A46103313CB13C2A8
:1009D0001B681360114B5A680C231340082B19D164
:1009E000910C0733194004A8445C0C49C96A0B40B8
:1009F0006946C95CD30308D463011B1B9801C01A64
:100A0000C0000419200209B030BD0548FFF77CFB87
:100A10006043F8E70248F6E7441700080010024078
:100A200000127A0070B505000C004D4B1A680123C6
:100A300013408B420BD24A490B6801229343234354
:100A40000B600B681A40A24201D0012070BD2B68D8
:100A50009B0706D5434A5368F0218B43A9680B4393
:100A600053602B68DB074BD56B68012B20D0022B22
:100A700024D03C4A126892076FD53A494A6803204D
:100A8000824313434B60FFF7F5FB06006B68012BB5
:100A90001AD0022B26D0334B5B680C221A422FD07F
:100AA000FFF7E8FB801B304B9842F4D90320CDE7D9
:100AB0002C4A12689203E0D40120C7E7294A126841
:100AC0009201DAD40120C1E7264B5A680C23134067
:100AD000042B15D0FFF7CEFB801B234B9842F3D994
:100AE0000320B3E71F4B5A680C231340082B07D091
:100AF000FFF7C0FB801B1C4B9842F3D90320A5E7EE
:100B0000174B1A6801231340A3420BD914490B68F1
:100B10000122934323430B600B681A40A24201D089
:100B2000012093E72B685B0706D50E4A53680F49EF
:100B30000B40E9680B435360FFF73CFF094B5A68D1
:100B400012090F2313400A4AD35CD840094B18609E
:100B50000020FFF765FB002078E7012076E7C0461C
:100B6000002002400010024088130000FFF8FFFF41
:100B70006417000800000020014B18687047C04649
:100B80000000002010B5FFF7F7FF044B5A68120A67
:100B900007231340024AD35CD84010BD0010024026
:100BA0007417000870B582B004000368DB0335D504
:100BB0003C4BDB69DB0048D43A4AD16980204005D0
:100BC0000143D161D36903400193019B0125364B59
:100BD0001B68DB053BD5334B1B6AC02292001340D8
:100BE00013D061680A409A420FD02E4B186A2F4AE0
:100BF00002401E6A8021490231431962196A2C4E53
:100C0000314019621A62C30735D4264A136A27494C
:100C10000B4061680B431362012D3BD02368DB0757
:100C200006D5204A136B03218B43A1680B43136342
:100C300023689B0633D51B4A136B10218B43E16855
:100C40000B431363002002B070BD0025BFE7164AB6
:100C5000116880235B000B431360FFF70BFB06005A
:100C6000114B1B68DB05B6D4FFF704FB801B64281F
:100C7000F6D90320E7E7FFF7FDFA0600094B1B6AE8
:100C80009B07C2D4FFF7F6FA801B0A4B9842F5D9AE
:100C90000320D8E7D36908490B40D361BEE70020A1
:100CA000D1E7C0460010024000700040FFFCFFFF8B
:100CB000FFFFFEFF88130000FFFFFFEF02681368CD
:100CC00006490B401360026893682331FF318B4360
:100CD00093606A232022C2547047C046DFFEFFFFA4
:100CE00070477047704710B5406A00235A228352FC
:100CF000083A8352FFF7F6FF10BD000010B504005C
:100D000083680269134342691343C269134301684C
:100D10000A685C48024013430B60226853685A49D2
:100D20000B40E1680B435360A269236A1A432168B0
:100D30008B685648034013438B60554B1A6B032353
:100D40001340012B26D0002B05D0022B24D0032BDF
:100D500024D0102300E0002380221202E169914296
:100D60001ED0022B00D16FE05ED9042B00D179E0B8
:100D7000082B00D084E06368580880231B029C463F
:100D800060446168FFF7C0F923680004000CD86074
:100D900000202EE00423DFE70823DDE70223DBE762
:100DA000022B27D00FD9042B2FD0082B39D1636801
:100DB000580880235B029C4660446168FFF7A4F9F1
:100DC00083B200200CE0002B2BD1FFF7DBFE4000AC
:100DD00063685B08C0186168FFF796F983B200206A
:100DE0000F22190091435B10083A13400B4322680D
:100DF000D36010BD63685808264B9C466044616808
:100E0000FFF782F983B20020EAE7FFF7D3FD400045
:100E100063685B08C0186168FFF776F983B2002049
:100E2000DEE701200023DBE7002B29D1FFF7AAFE34
:100E300063685B08C0186168FFF766F923680004FF
:100E4000000CD8600020D4E763685808124B9C4619
:100E500060446168FFF758F923680004000CD8600B
:100E60000020C6E7FFF7A6FD63685B08C01861684D
:100E7000FFF74AF923680004000CD8600020B8E7A7
:100E80000120B6E7F369FFFFFFCFFFFFFFF4FFFF8D
:100E9000001002400024F40000127A00436ADB07CD
:100EA00006D5026853682C490B40816A0B43536096
:100EB000436A9B0706D50268536828490B40C16AFC
:100EC0000B435360436A5B0706D5026853682449A5
:100ED0000B40016B0B435360436A1B0706D5026846
:100EE000536820490B40416B0B435360436ADB0658
:100EF00006D5026893681C490B40816B0B439360D5
:100F0000436A9B0606D50268936818490B40C16B7B
:100F10000B439360436A5B060BD502685368144920
:100F20000B40016C0B43536080235B03026C9A42BD
:100F30000AD0436A1B0606D5026853680D490B4068
:100F4000816C0B4353607047026853680A490B4039
:100F5000416C0B435360ECE7FFFFFDFFFFFFFEFF1B
:100F6000FFFFFBFFFF7FFFFFFFEFFFFFFFDFFFFF45
:100F7000FFFFEFFFFFFFF7FFFFFF9FFF0023C366A9
:100F800020226921425401314254483283540020C6
:100F90007047000010B5041E30D06923C35C002BDD
:100FA00022D069232422E2542268136801218B4352
:100FB00013602000FFF7A2FE012814D0636A002B03
:100FC00018D1226853680E490B4053602268936819
:100FD00008218B4393602268136807390B43136021
:100FE0002000FFF7CBFF10BD68330022C25400F091
:100FF00083FAD6E72000FFF751FFE2E70120F2E78E
:10100000FFF7FFFFF0B5C64600B506000C0017005D
:101010009846069D3368DB6923401B1B5A425341A7
:10102000BB421ED16B1CF5D0002D05D0FFF722F975
:101030004346C01AA842EDD9326813680B490B40E9
:10104000136032689368A331FF318B439360202390
:101050006922B3540132B35448330022F2540320BE
:1010600000E0002004BC9046F0BDC0465FFEFFFFDC
:10107000F0B585B004000E0017001D006923C35CA5
:10108000202B59D100295AD0002A5AD080235B0145
:1010900082689A4213D06823E35C012B53D0682303
:1010A0000122E2540023E36669332032E254FFF761
:1010B000E1F803905023E7520233E7520AE0036954
:1010C000002BE8D1CB07E6D5012036E03378226843
:1010D000138501365223E35A9BB2002B1CD05222B7
:1010E000A35A013B9BB2A3520095039B002280218F
:1010F0002000FFF787FF002827D180235B01A2682B
:101100009A42E3D12369002BE0D13388DB05DB0D64
:10111000226813850236DDE70095039B00224021FB
:101120002000FFF76FFF002811D169232022E2542D
:10113000013B0022E25400E0022005B0F0BD012096
:10114000FBE70120F9E70220F7E70320F5E703209A
:10115000F3E76923C35C212B2FD13133C35A9BB2F0
:10116000002B11D080235B0182689A4218D0C36C97
:101170005A1CC2641B78026813855222835A013BB1
:101180009BB28352002019E00268136880218B43D0
:1011900013600268136840390B43136000200DE0B0
:1011A0000369002BE3D1C36C1B88DB05DB0D0268F0
:1011B0001385C36C0233C364DFE70220704710B5A8
:1011C0000268136840218B43136069232022C254B4
:1011D000FFF786FD002010BD10B55C23C25A0E3308
:1011E000C35C222B32D103689B8C9BB280214901C6
:1011F00084688C420ED0D2B2416D4C1C44651340C1
:101200000B705A22835A013B9BB28352002B0BD0A6
:10121000002021E001690029EDD11340426D1380C7
:10122000436D02334365ECE7026813680B490B40DA
:101230001360026893682331FF318B4393606A2304
:101240002022C254FFF74DFD002005E0026893699B
:1012500008210B439361022010BDC046DFFEFFFF53
:1012600070B504000168CB6908680F221A4003D1E9
:101270009D0601D585065BD48D68002A6ED00122BB
:101280002A4003D190256D00284267D0DD0706D59E
:10129000C50504D501250D62E16E2943E166990774
:1012A00008D5002A06D0216802250D62E16E0235BC
:1012B0002943E166590708D5002A06D0216804258C
:1012C0000D62E16E023D2943E166190709D58106E9
:1012D00001D4002A05D0226808211162E26E0A4377
:1012E000E266E26E002A41D09B0601D5830623D434
:1012F000E36E1B0703D423689B685B0628D5200098
:10130000FFF7DCFC23689A6852061DD59A684021D5
:101310008A439A60636E002B12D0194A5A63606E3A
:10132000FFF72BF8002821D0606E436B98471DE033
:101330002000FFF751FF19E02000FFF74DFFD7E72E
:101340002000FFF7CFFC11E02000FFF7CBFC0DE001
:101350002000FFF7C7FC0023E36607E01A0601D56B
:10136000020604D45B0601D5430604D470BD2000F8
:10137000FFF7EFFEFAE72000FFF721FFF6E7C04690
:10138000E70C000800B587B00A4A51698020800246
:1013900001435161536903400093009B1F23019354
:1013A000002302930393902001A9C005FFF70AF8D8
:1013B00007B000BD00100240FEE7000010B50C4869
:1013C0000C4B0360E1235B02436000238360C36036
:1013D00003610C2242618361C36103624362FFF7D0
:1013E000D9FD002800D110BDBE210348FFF7E4FF5E
:1013F00030000020003801407C17000800B595B08F
:1014000002230893013B0B930F330C93002310939B
:1014100008A8FFF7A5F8002827D107230493002385
:10142000059306930793002104A8FFF7FBFA002811
:101430001FD101230093002302936846FFF7B2FBFC
:1014400000281AD1FFF798FBFA218900FEF75CFE0D
:10145000FEF762FF0420FEF77BFF0120002200213F
:101460004042FEF71FFF15B000BD8B210548FFF776
:10147000A3FF98210348FFF79FFF9F210148FFF733
:101480009BFFC0467C17000810B5FEF7DBFEFFF798
:10149000B5FFFFF777FFFFF791FF00F0AFF800F01F
:1014A000E5F8FCE700B583B0124B996901221143BE
:1014B000996199690A400092009ADA698021490588
:1014C0000A43DA61DB690B400193019B052000228E
:1014D00000214042FEF7E6FE0220002200214042A9
:1014E000FEF7E0FE0120002200214042FEF7DAFE76
:1014F00003B000BD0010024000B587B00268144B75
:101500009A4201D007B000BD124A91698020C00103
:1015100001439161936903400093009BC023DB006A
:101520000193022302930023039303330493023BAA
:101530000593902001A9C005FEF744FF0022002179
:101540001B20FEF7AFFE1B20FEF7DCFEDAE7C046ED
:1015500000380140001002407047FEE770477047B6
:1015600010B5FEF77FFEFEF704FF10BD10B5024870
:10157000FFF776FE10BDC04630000020114B1A6800
:1015800001210A431A605A680F4802405A601A68DB
:101590000E4802401A601A680D4802401A605A68E4
:1015A0000C4802405A60DA6A0F208243DA621A6BF2
:1015B000094802401A635A6B8A435A6300229A60B0
:1015C0007047C046001002400CB8FF08FFFFF6FE4F
:1015D000FFFFFBFFFFFFC0FFECFEFFFF00B583B086
:1015E0006B46D91D0870642301220348FFF740FDB4
:1015F000012003B000BDC0463000002010B54120DE
:10160000FFF7ECFF10BD000070B5174C00232370EE
:101610009025ED0501212800FEF79AFF2071022197
:101620002800FEF795FF607104212800FEF790FF67
:10163000A07108212800FEF78BFFE071102128001F
:10164000FEF786FF2072042208E007490B785B0052
:10165000DBB2881800791B180B70013A002AF4DA03
:10166000014B187870BDC0462000002010B5FFF770
:10167000CBFF064C60720120FFF7B0FF607AFFF7E6
:10168000ADFFFA208000FEF7FBFD10BD200000201A
:101690000D4885460D480E490E4A002302E0D458F5
:1016A000C4500433C4188C42F9D30B4A0B4C0023AA
:1016B00001E013600432A242FBD3FFF75FFF00F0AA
:1016C00011F8FFF7E1FEFEE7001000200000002007
:1016D000040000209417000804000020A00000204F
:1016E000FEE7000070B500260C4D0D4C641BA410E5
:1016F000A64209D1002600F019F80A4D0A4C641BD5
:10170000A410A64205D170BDB300EB58984701362E
:10171000EEE7B300EB5898470136F2E78C17000864
:101720008C1700088C17000890170008F8B5C04601
:10173000F8BC08BC9E467047F8B5C046F8BC08BC6B
:041740009E4670470A
:1017440002030405060708090A0B0C0D0E0F1010FE
:101754000102030405060708090A0B0C0D0E0F10FD
:10176400000000000000000001020304060708094D
:1017740000000000010203042E2E2F5372632F6D0C
:0817840061696E2E6300000094
:04178C00E900000868
:04179000C10000088C
:0417940000127A00C5
:040000050800169148
:00000001FF
